{
    "contractName": "VotingTest",
    "abi": [
        {
            "inputs": [],
            "stateMutability": "nonpayable",
            "type": "constructor"
        },
        {
            "inputs": [
                {
                    "internalType": "string",
                    "name": "",
                    "type": "string"
                }
            ],
            "name": "candidatesVotedCount",
            "outputs": [
                {
                    "internalType": "uint256",
                    "name": "",
                    "type": "uint256"
                }
            ],
            "stateMutability": "view",
            "type": "function"
        },
        {
            "inputs": [
                {
                    "internalType": "string",
                    "name": "_name",
                    "type": "string"
                }
            ],
            "name": "getVotedCount",
            "outputs": [
                {
                    "internalType": "uint256",
                    "name": "",
                    "type": "uint256"
                }
            ],
            "stateMutability": "view",
            "type": "function"
        }
    ],
    "bytecode": "608060405234801561001057600080fd5b506005600060405161002a9061534d60f01b815260020190565b908152604051908190036020019020556101e5806100496000396000f3fe608060405234801561001057600080fd5b50600436106100365760003560e01c80635a2274851461003b578063ccc9308214610078575b600080fd5b6100666100493660046100c3565b805160208183018101805160008252928201919093012091525481565b60405190815260200160405180910390f35b6100666100863660046100c3565b600080826040516100979190610174565b9081526020016040518091039020549050919050565b634e487b7160e01b600052604160045260246000fd5b6000602082840312156100d557600080fd5b813567ffffffffffffffff808211156100ed57600080fd5b818401915084601f83011261010157600080fd5b813581811115610113576101136100ad565b604051601f8201601f19908116603f0116810190838211818310171561013b5761013b6100ad565b8160405282815287602084870101111561015457600080fd5b826020860160208301376000928101602001929092525095945050505050565b6000825160005b81811015610195576020818601810151858301520161017b565b818111156101a4576000828501525b50919091019291505056fea2646970667358221220449eadf7dcf24e5fe5c4df324ddc713d5555d42e3da4bb9e823cfa88a1d2c87764736f6c634300080b0033",
    "sourcePath": "d:/sangmin/Development/sangmin/solidity/Ethereum_workspace/contracts/Voting_test.sol",
    "compiler": {
        "name": "solc",
        "version": "0.8.11+commit.d7f03943"
    },
    "functionHashes": {
        "candidatesVotedCount(string)": "5a227485",
        "getVotedCount(string)": "ccc93082"
    },
    "gasEstimates": {
        "creation": {
            "codeDepositCost": "97000",
            "executionCost": "22376",
            "totalCost": "119376"
        },
        "external": {
            "candidatesVotedCount(string)": "infinite",
            "getVotedCount(string)": "infinite"
        }
    }
}